{
  "_format": "hh-sol-artifact-1",
  "contractName": "WEB3ETH",
  "sourceName": "contracts/CoinVest.sol",
  "abi": [
    {
      "inputs": [
        {
          "internalType": "address",
          "name": "liquidityFeesWallet1",
          "type": "address"
        }
      ],
      "stateMutability": "nonpayable",
      "type": "constructor"
    },
    {
      "inputs": [
        {
          "internalType": "address",
          "name": "spender",
          "type": "address"
        },
        {
          "internalType": "uint256",
          "name": "allowance",
          "type": "uint256"
        },
        {
          "internalType": "uint256",
          "name": "needed",
          "type": "uint256"
        }
      ],
      "name": "ERC20InsufficientAllowance",
      "type": "error"
    },
    {
      "inputs": [
        {
          "internalType": "address",
          "name": "sender",
          "type": "address"
        },
        {
          "internalType": "uint256",
          "name": "balance",
          "type": "uint256"
        },
        {
          "internalType": "uint256",
          "name": "needed",
          "type": "uint256"
        }
      ],
      "name": "ERC20InsufficientBalance",
      "type": "error"
    },
    {
      "inputs": [
        {
          "internalType": "address",
          "name": "approver",
          "type": "address"
        }
      ],
      "name": "ERC20InvalidApprover",
      "type": "error"
    },
    {
      "inputs": [
        {
          "internalType": "address",
          "name": "receiver",
          "type": "address"
        }
      ],
      "name": "ERC20InvalidReceiver",
      "type": "error"
    },
    {
      "inputs": [
        {
          "internalType": "address",
          "name": "sender",
          "type": "address"
        }
      ],
      "name": "ERC20InvalidSender",
      "type": "error"
    },
    {
      "inputs": [
        {
          "internalType": "address",
          "name": "spender",
          "type": "address"
        }
      ],
      "name": "ERC20InvalidSpender",
      "type": "error"
    },
    {
      "anonymous": false,
      "inputs": [
        {
          "indexed": true,
          "internalType": "address",
          "name": "owner",
          "type": "address"
        },
        {
          "indexed": true,
          "internalType": "address",
          "name": "spender",
          "type": "address"
        },
        {
          "indexed": false,
          "internalType": "uint256",
          "name": "value",
          "type": "uint256"
        }
      ],
      "name": "Approval",
      "type": "event"
    },
    {
      "anonymous": false,
      "inputs": [
        {
          "indexed": true,
          "internalType": "address",
          "name": "from",
          "type": "address"
        },
        {
          "indexed": true,
          "internalType": "address",
          "name": "to",
          "type": "address"
        },
        {
          "indexed": false,
          "internalType": "uint256",
          "name": "value",
          "type": "uint256"
        }
      ],
      "name": "Transfer",
      "type": "event"
    },
    {
      "inputs": [
        {
          "internalType": "address",
          "name": "owner",
          "type": "address"
        },
        {
          "internalType": "address",
          "name": "spender",
          "type": "address"
        }
      ],
      "name": "allowance",
      "outputs": [
        {
          "internalType": "uint256",
          "name": "",
          "type": "uint256"
        }
      ],
      "stateMutability": "view",
      "type": "function"
    },
    {
      "inputs": [
        {
          "internalType": "address",
          "name": "spender",
          "type": "address"
        },
        {
          "internalType": "uint256",
          "name": "value",
          "type": "uint256"
        }
      ],
      "name": "approve",
      "outputs": [
        {
          "internalType": "bool",
          "name": "",
          "type": "bool"
        }
      ],
      "stateMutability": "nonpayable",
      "type": "function"
    },
    {
      "inputs": [
        {
          "internalType": "address",
          "name": "account",
          "type": "address"
        }
      ],
      "name": "balanceOf",
      "outputs": [
        {
          "internalType": "uint256",
          "name": "",
          "type": "uint256"
        }
      ],
      "stateMutability": "view",
      "type": "function"
    },
    {
      "inputs": [],
      "name": "decimals",
      "outputs": [
        {
          "internalType": "uint8",
          "name": "",
          "type": "uint8"
        }
      ],
      "stateMutability": "view",
      "type": "function"
    },
    {
      "inputs": [],
      "name": "liquidityFeeWallet",
      "outputs": [
        {
          "internalType": "address",
          "name": "",
          "type": "address"
        }
      ],
      "stateMutability": "view",
      "type": "function"
    },
    {
      "inputs": [],
      "name": "name",
      "outputs": [
        {
          "internalType": "string",
          "name": "",
          "type": "string"
        }
      ],
      "stateMutability": "view",
      "type": "function"
    },
    {
      "inputs": [],
      "name": "symbol",
      "outputs": [
        {
          "internalType": "string",
          "name": "",
          "type": "string"
        }
      ],
      "stateMutability": "view",
      "type": "function"
    },
    {
      "inputs": [],
      "name": "totalSupply",
      "outputs": [
        {
          "internalType": "uint256",
          "name": "",
          "type": "uint256"
        }
      ],
      "stateMutability": "view",
      "type": "function"
    },
    {
      "inputs": [
        {
          "internalType": "address",
          "name": "to",
          "type": "address"
        },
        {
          "internalType": "uint256",
          "name": "value",
          "type": "uint256"
        }
      ],
      "name": "transfer",
      "outputs": [
        {
          "internalType": "bool",
          "name": "",
          "type": "bool"
        }
      ],
      "stateMutability": "nonpayable",
      "type": "function"
    },
    {
      "inputs": [
        {
          "internalType": "address",
          "name": "from",
          "type": "address"
        },
        {
          "internalType": "address",
          "name": "to",
          "type": "address"
        },
        {
          "internalType": "uint256",
          "name": "value",
          "type": "uint256"
        }
      ],
      "name": "transferFrom",
      "outputs": [
        {
          "internalType": "bool",
          "name": "",
          "type": "bool"
        }
      ],
      "stateMutability": "nonpayable",
      "type": "function"
    },
    {
      "inputs": [
        {
          "internalType": "address",
          "name": "to",
          "type": "address"
        },
        {
          "internalType": "uint256",
          "name": "value",
          "type": "uint256"
        }
      ],
      "name": "transferNormal",
      "outputs": [],
      "stateMutability": "nonpayable",
      "type": "function"
    }
  ],
  "bytecode": "0x60806040523480156200001157600080fd5b5060405162001c8938038062001c8983398181016040528101906200003791906200046a565b6040518060400160405280600e81526020017f57656233466f756e646174696f6e0000000000000000000000000000000000008152506040518060400160405280600781526020017f57454233455448000000000000000000000000000000000000000000000000008152508160039081620000b4919062000716565b508060049081620000c6919062000716565b505050620000f3620000dd6200013b60201b60201c565b683635c9adc5dea000006200014360201b60201c565b80600560006101000a81548173ffffffffffffffffffffffffffffffffffffffff021916908373ffffffffffffffffffffffffffffffffffffffff1602179055505062000900565b600033905090565b600073ffffffffffffffffffffffffffffffffffffffff168273ffffffffffffffffffffffffffffffffffffffff1603620001b85760006040517fec442f05000000000000000000000000000000000000000000000000000000008152600401620001af91906200080e565b60405180910390fd5b620001cc60008383620001d060201b60201c565b5050565b600073ffffffffffffffffffffffffffffffffffffffff168373ffffffffffffffffffffffffffffffffffffffff1603620002265780600260008282546200021991906200085a565b92505081905550620002fc565b60008060008573ffffffffffffffffffffffffffffffffffffffff1673ffffffffffffffffffffffffffffffffffffffff16815260200190815260200160002054905081811015620002b5578381836040517fe450d38c000000000000000000000000000000000000000000000000000000008152600401620002ac93929190620008a6565b60405180910390fd5b8181036000808673ffffffffffffffffffffffffffffffffffffffff1673ffffffffffffffffffffffffffffffffffffffff16815260200190815260200160002081905550505b600073ffffffffffffffffffffffffffffffffffffffff168273ffffffffffffffffffffffffffffffffffffffff160362000347578060026000828254039250508190555062000394565b806000808473ffffffffffffffffffffffffffffffffffffffff1673ffffffffffffffffffffffffffffffffffffffff168152602001908152602001600020600082825401925050819055505b8173ffffffffffffffffffffffffffffffffffffffff168373ffffffffffffffffffffffffffffffffffffffff167fddf252ad1be2c89b69c2b068fc378daa952ba7f163c4a11628f55a4df523b3ef83604051620003f39190620008e3565b60405180910390a3505050565b600080fd5b600073ffffffffffffffffffffffffffffffffffffffff82169050919050565b6000620004328262000405565b9050919050565b620004448162000425565b81146200045057600080fd5b50565b600081519050620004648162000439565b92915050565b60006020828403121562000483576200048262000400565b5b6000620004938482850162000453565b91505092915050565b600081519050919050565b7f4e487b7100000000000000000000000000000000000000000000000000000000600052604160045260246000fd5b7f4e487b7100000000000000000000000000000000000000000000000000000000600052602260045260246000fd5b600060028204905060018216806200051e57607f821691505b602082108103620005345762000533620004d6565b5b50919050565b60008190508160005260206000209050919050565b60006020601f8301049050919050565b600082821b905092915050565b6000600883026200059e7fffffffffffffffffffffffffffffffffffffffffffffffffffffffffffffffff826200055f565b620005aa86836200055f565b95508019841693508086168417925050509392505050565b6000819050919050565b6000819050919050565b6000620005f7620005f1620005eb84620005c2565b620005cc565b620005c2565b9050919050565b6000819050919050565b6200061383620005d6565b6200062b6200062282620005fe565b8484546200056c565b825550505050565b600090565b6200064262000633565b6200064f81848462000608565b505050565b5b8181101562000677576200066b60008262000638565b60018101905062000655565b5050565b601f821115620006c65762000690816200053a565b6200069b846200054f565b81016020851015620006ab578190505b620006c3620006ba856200054f565b83018262000654565b50505b505050565b600082821c905092915050565b6000620006eb60001984600802620006cb565b1980831691505092915050565b6000620007068383620006d8565b9150826002028217905092915050565b62000721826200049c565b67ffffffffffffffff8111156200073d576200073c620004a7565b5b62000749825462000505565b620007568282856200067b565b600060209050601f8311600181146200078e576000841562000779578287015190505b620007858582620006f8565b865550620007f5565b601f1984166200079e866200053a565b60005b82811015620007c857848901518255600182019150602085019450602081019050620007a1565b86831015620007e85784890151620007e4601f891682620006d8565b8355505b6001600288020188555050505b505050505050565b620008088162000425565b82525050565b6000602082019050620008256000830184620007fd565b92915050565b7f4e487b7100000000000000000000000000000000000000000000000000000000600052601160045260246000fd5b60006200086782620005c2565b91506200087483620005c2565b92508282019050808211156200088f576200088e6200082b565b5b92915050565b620008a081620005c2565b82525050565b6000606082019050620008bd6000830186620007fd565b620008cc602083018562000895565b620008db604083018462000895565b949350505050565b6000602082019050620008fa600083018462000895565b92915050565b61137980620009106000396000f3fe608060405234801561001057600080fd5b50600436106100a95760003560e01c806370a082311161007157806370a08231146101685780638a15b5211461019857806395d89b41146101b457806397703936146101d2578063a9059cbb146101f0578063dd62ed3e14610220576100a9565b806306fdde03146100ae578063095ea7b3146100cc57806318160ddd146100fc57806323b872dd1461011a578063313ce5671461014a575b600080fd5b6100b6610250565b6040516100c39190610d84565b60405180910390f35b6100e660048036038101906100e19190610e3f565b6102e2565b6040516100f39190610e9a565b60405180910390f35b610104610305565b6040516101119190610ec4565b60405180910390f35b610134600480360381019061012f9190610edf565b61030f565b6040516101419190610e9a565b60405180910390f35b61015261033e565b60405161015f9190610f4e565b60405180910390f35b610182600480360381019061017d9190610f69565b610347565b60405161018f9190610ec4565b60405180910390f35b6101b260048036038101906101ad9190610e3f565b61038f565b005b6101bc6103e2565b6040516101c99190610d84565b60405180910390f35b6101da610474565b6040516101e79190610fa5565b60405180910390f35b61020a60048036038101906102059190610e3f565b61049a565b6040516102179190610e9a565b60405180910390f35b61023a60048036038101906102359190610fc0565b6105c3565b6040516102479190610ec4565b60405180910390f35b60606003805461025f9061102f565b80601f016020809104026020016040519081016040528092919081815260200182805461028b9061102f565b80156102d85780601f106102ad576101008083540402835291602001916102d8565b820191906000526020600020905b8154815290600101906020018083116102bb57829003601f168201915b5050505050905090565b6000806102ed61064a565b90506102fa818585610652565b600191505092915050565b6000600254905090565b60008061031a61064a565b9050610327858285610664565b6103328585856106f8565b60019150509392505050565b60006012905090565b60008060008373ffffffffffffffffffffffffffffffffffffffff1673ffffffffffffffffffffffffffffffffffffffff168152602001908152602001600020549050919050565b600061039b83836107ec565b9050806103dd576040517f08c379a00000000000000000000000000000000000000000000000000000000081526004016103d4906110ac565b60405180910390fd5b505050565b6060600480546103f19061102f565b80601f016020809104026020016040519081016040528092919081815260200182805461041d9061102f565b801561046a5780601f1061043f5761010080835404028352916020019161046a565b820191906000526020600020905b81548152906001019060200180831161044d57829003601f168201915b5050505050905090565b600560009054906101000a900473ffffffffffffffffffffffffffffffffffffffff1681565b6000806104a561064a565b90506104b081610347565b83106104f1576040517f08c379a00000000000000000000000000000000000000000000000000000000081526004016104e890611118565b60405180910390fd5b60006064605a856105029190611167565b61050c91906111d8565b846105179190611209565b9050600081856105279190611209565b90506000821161056c576040517f08c379a000000000000000000000000000000000000000000000000000000000815260040161056390611289565b60405180910390fd5b6105758161080f565b61057e8261080f565b6105898387836106f8565b6105b683600560009054906101000a900473ffffffffffffffffffffffffffffffffffffffff16846106f8565b6001935050505092915050565b6000600160008473ffffffffffffffffffffffffffffffffffffffff1673ffffffffffffffffffffffffffffffffffffffff16815260200190815260200160002060008373ffffffffffffffffffffffffffffffffffffffff1673ffffffffffffffffffffffffffffffffffffffff16815260200190815260200160002054905092915050565b600033905090565b61065f83838360016108a8565b505050565b600061067084846105c3565b90507fffffffffffffffffffffffffffffffffffffffffffffffffffffffffffffffff81146106f257818110156106e2578281836040517ffb8f41b20000000000000000000000000000000000000000000000000000000081526004016106d9939291906112a9565b60405180910390fd5b6106f1848484840360006108a8565b5b50505050565b600073ffffffffffffffffffffffffffffffffffffffff168373ffffffffffffffffffffffffffffffffffffffff160361076a5760006040517f96c6fd1e0000000000000000000000000000000000000000000000000000000081526004016107619190610fa5565b60405180910390fd5b600073ffffffffffffffffffffffffffffffffffffffff168273ffffffffffffffffffffffffffffffffffffffff16036107dc5760006040517fec442f050000000000000000000000000000000000000000000000000000000081526004016107d39190610fa5565b60405180910390fd5b6107e7838383610a7f565b505050565b6000806107f761064a565b90506108048185856106f8565b600191505092915050565b6108a5816040516024016108239190610ec4565b6040516020818303038152906040527ff82c50f1000000000000000000000000000000000000000000000000000000007bffffffffffffffffffffffffffffffffffffffffffffffffffffffff19166020820180517bffffffffffffffffffffffffffffffffffffffffffffffffffffffff8381831617835250505050610ca4565b50565b600073ffffffffffffffffffffffffffffffffffffffff168473ffffffffffffffffffffffffffffffffffffffff160361091a5760006040517fe602df050000000000000000000000000000000000000000000000000000000081526004016109119190610fa5565b60405180910390fd5b600073ffffffffffffffffffffffffffffffffffffffff168373ffffffffffffffffffffffffffffffffffffffff160361098c5760006040517f94280d620000000000000000000000000000000000000000000000000000000081526004016109839190610fa5565b60405180910390fd5b81600160008673ffffffffffffffffffffffffffffffffffffffff1673ffffffffffffffffffffffffffffffffffffffff16815260200190815260200160002060008573ffffffffffffffffffffffffffffffffffffffff1673ffffffffffffffffffffffffffffffffffffffff168152602001908152602001600020819055508015610a79578273ffffffffffffffffffffffffffffffffffffffff168473ffffffffffffffffffffffffffffffffffffffff167f8c5be1e5ebec7d5bd14f71427d1e84f3dd0314c0f7b2291e5b200ac8c7c3b92584604051610a709190610ec4565b60405180910390a35b50505050565b600073ffffffffffffffffffffffffffffffffffffffff168373ffffffffffffffffffffffffffffffffffffffff1603610ad1578060026000828254610ac591906112e0565b92505081905550610ba4565b60008060008573ffffffffffffffffffffffffffffffffffffffff1673ffffffffffffffffffffffffffffffffffffffff16815260200190815260200160002054905081811015610b5d578381836040517fe450d38c000000000000000000000000000000000000000000000000000000008152600401610b54939291906112a9565b60405180910390fd5b8181036000808673ffffffffffffffffffffffffffffffffffffffff1673ffffffffffffffffffffffffffffffffffffffff16815260200190815260200160002081905550505b600073ffffffffffffffffffffffffffffffffffffffff168273ffffffffffffffffffffffffffffffffffffffff1603610bed5780600260008282540392505081905550610c3a565b806000808473ffffffffffffffffffffffffffffffffffffffff1673ffffffffffffffffffffffffffffffffffffffff168152602001908152602001600020600082825401925050819055505b8173ffffffffffffffffffffffffffffffffffffffff168373ffffffffffffffffffffffffffffffffffffffff167fddf252ad1be2c89b69c2b068fc378daa952ba7f163c4a11628f55a4df523b3ef83604051610c979190610ec4565b60405180910390a3505050565b610cbb81610cb3610cbe610cdf565b63ffffffff16565b50565b60006a636f6e736f6c652e6c6f679050600080835160208501845afa505050565b610cea819050919050565b610cf2611314565b565b600081519050919050565b600082825260208201905092915050565b60005b83811015610d2e578082015181840152602081019050610d13565b60008484015250505050565b6000601f19601f8301169050919050565b6000610d5682610cf4565b610d608185610cff565b9350610d70818560208601610d10565b610d7981610d3a565b840191505092915050565b60006020820190508181036000830152610d9e8184610d4b565b905092915050565b600080fd5b600073ffffffffffffffffffffffffffffffffffffffff82169050919050565b6000610dd682610dab565b9050919050565b610de681610dcb565b8114610df157600080fd5b50565b600081359050610e0381610ddd565b92915050565b6000819050919050565b610e1c81610e09565b8114610e2757600080fd5b50565b600081359050610e3981610e13565b92915050565b60008060408385031215610e5657610e55610da6565b5b6000610e6485828601610df4565b9250506020610e7585828601610e2a565b9150509250929050565b60008115159050919050565b610e9481610e7f565b82525050565b6000602082019050610eaf6000830184610e8b565b92915050565b610ebe81610e09565b82525050565b6000602082019050610ed96000830184610eb5565b92915050565b600080600060608486031215610ef857610ef7610da6565b5b6000610f0686828701610df4565b9350506020610f1786828701610df4565b9250506040610f2886828701610e2a565b9150509250925092565b600060ff82169050919050565b610f4881610f32565b82525050565b6000602082019050610f636000830184610f3f565b92915050565b600060208284031215610f7f57610f7e610da6565b5b6000610f8d84828501610df4565b91505092915050565b610f9f81610dcb565b82525050565b6000602082019050610fba6000830184610f96565b92915050565b60008060408385031215610fd757610fd6610da6565b5b6000610fe585828601610df4565b9250506020610ff685828601610df4565b9150509250929050565b7f4e487b7100000000000000000000000000000000000000000000000000000000600052602260045260246000fd5b6000600282049050600182168061104757607f821691505b60208210810361105a57611059611000565b5b50919050565b7f66756e6473207472616e73666572656400000000000000000000000000000000600082015250565b6000611096601083610cff565b91506110a182611060565b602082019050919050565b600060208201905081810360008301526110c581611089565b9050919050565b7f4e6f7420656e6f7567682062616c616e63650000000000000000000000000000600082015250565b6000611102601283610cff565b915061110d826110cc565b602082019050919050565b60006020820190508181036000830152611131816110f5565b9050919050565b7f4e487b7100000000000000000000000000000000000000000000000000000000600052601160045260246000fd5b600061117282610e09565b915061117d83610e09565b925082820261118b81610e09565b915082820484148315176111a2576111a1611138565b5b5092915050565b7f4e487b7100000000000000000000000000000000000000000000000000000000600052601260045260246000fd5b60006111e382610e09565b91506111ee83610e09565b9250826111fe576111fd6111a9565b5b828204905092915050565b600061121482610e09565b915061121f83610e09565b925082820390508181111561123757611236611138565b5b92915050565b7f5468652066656573206172652030000000000000000000000000000000000000600082015250565b6000611273600e83610cff565b915061127e8261123d565b602082019050919050565b600060208201905081810360008301526112a281611266565b9050919050565b60006060820190506112be6000830186610f96565b6112cb6020830185610eb5565b6112d86040830184610eb5565b949350505050565b60006112eb82610e09565b91506112f683610e09565b925082820190508082111561130e5761130d611138565b5b92915050565b7f4e487b7100000000000000000000000000000000000000000000000000000000600052605160045260246000fdfea26469706673582212209fb1abb78994af83ae3ac3e1a521c14a7fadc512e9faa8a0dc749c0b96b983fc64736f6c63430008180033",
  "linkReferences": {},
  "deployedLinkReferences": {}
}