{
  "_format": "hh-sol-artifact-1",
  "contractName": "ProposalApprovalMultiSig",
  "sourceName": "contracts/ProposalVotingMultisig.sol",
  "abi": [
    {
      "inputs": [
        {
          "internalType": "address",
          "name": "_tokenAddress",
          "type": "address"
        }
      ],
      "stateMutability": "nonpayable",
      "type": "constructor"
    },
    {
      "inputs": [
        {
          "internalType": "uint256",
          "name": "",
          "type": "uint256"
        }
      ],
      "name": "Proposals",
      "outputs": [
        {
          "internalType": "string",
          "name": "description",
          "type": "string"
        },
        {
          "internalType": "uint256",
          "name": "startTime",
          "type": "uint256"
        },
        {
          "internalType": "uint256",
          "name": "endTime",
          "type": "uint256"
        },
        {
          "internalType": "bool",
          "name": "executed",
          "type": "bool"
        }
      ],
      "stateMutability": "view",
      "type": "function"
    },
    {
      "inputs": [
        {
          "internalType": "uint256",
          "name": "",
          "type": "uint256"
        },
        {
          "internalType": "address",
          "name": "",
          "type": "address"
        }
      ],
      "name": "approvals",
      "outputs": [
        {
          "internalType": "bool",
          "name": "",
          "type": "bool"
        }
      ],
      "stateMutability": "view",
      "type": "function"
    },
    {
      "inputs": [
        {
          "internalType": "uint256",
          "name": "proposalIndex",
          "type": "uint256"
        }
      ],
      "name": "getOptionStatus",
      "outputs": [
        {
          "internalType": "uint256[]",
          "name": "",
          "type": "uint256[]"
        }
      ],
      "stateMutability": "view",
      "type": "function"
    },
    {
      "inputs": [
        {
          "internalType": "uint256",
          "name": "proposalIndex",
          "type": "uint256"
        }
      ],
      "name": "getWinningOption",
      "outputs": [
        {
          "internalType": "string",
          "name": "",
          "type": "string"
        }
      ],
      "stateMutability": "view",
      "type": "function"
    },
    {
      "inputs": [],
      "name": "requiredApprovals",
      "outputs": [
        {
          "internalType": "uint256",
          "name": "",
          "type": "uint256"
        }
      ],
      "stateMutability": "view",
      "type": "function"
    },
    {
      "inputs": [
        {
          "internalType": "string",
          "name": "_description",
          "type": "string"
        },
        {
          "internalType": "string[]",
          "name": "_options",
          "type": "string[]"
        },
        {
          "internalType": "uint256",
          "name": "_startTime",
          "type": "uint256"
        },
        {
          "internalType": "uint256",
          "name": "_endTime",
          "type": "uint256"
        }
      ],
      "name": "submitProposal",
      "outputs": [],
      "stateMutability": "nonpayable",
      "type": "function"
    },
    {
      "inputs": [],
      "name": "tokenAddress",
      "outputs": [
        {
          "internalType": "address",
          "name": "",
          "type": "address"
        }
      ],
      "stateMutability": "view",
      "type": "function"
    },
    {
      "inputs": [
        {
          "internalType": "uint256",
          "name": "proposalIndex",
          "type": "uint256"
        },
        {
          "internalType": "uint256",
          "name": "optionIndex",
          "type": "uint256"
        }
      ],
      "name": "voteProposal",
      "outputs": [],
      "stateMutability": "nonpayable",
      "type": "function"
    },
    {
      "inputs": [
        {
          "internalType": "uint256",
          "name": "",
          "type": "uint256"
        }
      ],
      "name": "voters",
      "outputs": [
        {
          "internalType": "address",
          "name": "",
          "type": "address"
        }
      ],
      "stateMutability": "view",
      "type": "function"
    }
  ],
  "bytecode": "0x60806040523480156200001157600080fd5b5060405162001a0138038062001a018339818101604052810190620000379190620000e9565b80600160006101000a81548173ffffffffffffffffffffffffffffffffffffffff021916908373ffffffffffffffffffffffffffffffffffffffff160217905550506200011b565b600080fd5b600073ffffffffffffffffffffffffffffffffffffffff82169050919050565b6000620000b18262000084565b9050919050565b620000c381620000a4565b8114620000cf57600080fd5b50565b600081519050620000e381620000b8565b92915050565b6000602082840312156200010257620001016200007f565b5b60006200011284828501620000d2565b91505092915050565b6118d6806200012b6000396000f3fe608060405234801561001057600080fd5b50600436106100925760003560e01c8063a628687011610066578063a62868701461011f578063ab2850da1461014f578063d1dbe7d81461017f578063da58c7d9146101b2578063f321380d146101e257610092565b806259b2d01461009757806363d26460146100c757806399c1aadc146100e35780639d76ea5814610101575b600080fd5b6100b160048036038101906100ac9190610c25565b6101fe565b6040516100be9190610d10565b60405180910390f35b6100e160048036038101906100dc9190610d32565b610323565b005b6100eb610682565b6040516100f89190610d81565b60405180910390f35b610109610688565b6040516101169190610ddd565b60405180910390f35b61013960048036038101906101349190610c25565b6106ae565b6040516101469190610e88565b60405180910390f35b61016960048036038101906101649190610ed6565b610820565b6040516101769190610f31565b60405180910390f35b61019960048036038101906101949190610c25565b61084f565b6040516101a99493929190610f4c565b60405180910390f35b6101cc60048036038101906101c79190610c25565b610924565b6040516101d99190610ddd565b60405180910390f35b6101fc60048036038101906101f791906111b3565b610963565b005b60606003805490508210610247576040517f08c379a000000000000000000000000000000000000000000000000000000000815260040161023e9061129e565b60405180910390fd5b60006003838154811061025d5761025c6112be565b5b9060005260206000209060060201905060008160010190506000818054905067ffffffffffffffff81111561029557610294610fa2565b5b6040519080825280602002602001820160405280156102c35781602001602082028036833780820191505090505b50905060005b828054905081101561031757836005016000828152602001908152602001600020548282815181106102fe576102fd6112be565b5b60200260200101818152505080806001019150506102c9565b50809350505050919050565b6000600160009054906101000a900473ffffffffffffffffffffffffffffffffffffffff16905060008173ffffffffffffffffffffffffffffffffffffffff166370a08231336040518263ffffffff1660e01b81526004016103859190610ddd565b602060405180830381865afa1580156103a2573d6000803e3d6000fd5b505050506040513d601f19601f820116820180604052508101906103c69190611302565b11610406576040517f08c379a00000000000000000000000000000000000000000000000000000000081526004016103fd9061137b565b60405180910390fd5b600380549050831061044d576040517f08c379a00000000000000000000000000000000000000000000000000000000081526004016104449061129e565b60405180910390fd5b600060038481548110610463576104626112be565b5b9060005260206000209060060201905080600201544210156104ba576040517f08c379a00000000000000000000000000000000000000000000000000000000081526004016104b1906113e7565b60405180910390fd5b8060030154421115610501576040517f08c379a00000000000000000000000000000000000000000000000000000000081526004016104f890611453565b60405180910390fd5b8060010180549050831061054a576040517f08c379a0000000000000000000000000000000000000000000000000000000008152600401610541906114bf565b60405180910390fd5b6004600085815260200190815260200160002060003373ffffffffffffffffffffffffffffffffffffffff1673ffffffffffffffffffffffffffffffffffffffff16815260200190815260200160002060009054906101000a900460ff16156105e8576040517f08c379a00000000000000000000000000000000000000000000000000000000081526004016105df9061152b565b60405180910390fd5b60016004600086815260200190815260200160002060003373ffffffffffffffffffffffffffffffffffffffff1673ffffffffffffffffffffffffffffffffffffffff16815260200190815260200160002060006101000a81548160ff02191690831515021790555080600501600084815260200190815260200160002060008154809291906106779061157a565b919050555050505050565b60025481565b600160009054906101000a900473ffffffffffffffffffffffffffffffffffffffff1681565b606060038054905082106106f7576040517f08c379a00000000000000000000000000000000000000000000000000000000081526004016106ee9061129e565b60405180910390fd5b60006003838154811061070d5761070c6112be565b5b90600052602060002090600602019050600081600101905060008060005b838054905081101561076e57600085600501600083815260200190815260200160002054905083811115610760578093508192505b50808060010191505061072b565b50828181548110610782576107816112be565b5b906000526020600020018054610797906115f1565b80601f01602080910402602001604051908101604052809291908181526020018280546107c3906115f1565b80156108105780601f106107e557610100808354040283529160200191610810565b820191906000526020600020905b8154815290600101906020018083116107f357829003601f168201915b5050505050945050505050919050565b60046020528160005260406000206020528060005260406000206000915091509054906101000a900460ff1681565b6003818154811061085f57600080fd5b9060005260206000209060060201600091509050806000018054610882906115f1565b80601f01602080910402602001604051908101604052809291908181526020018280546108ae906115f1565b80156108fb5780601f106108d0576101008083540402835291602001916108fb565b820191906000526020600020905b8154815290600101906020018083116108de57829003601f168201915b5050505050908060020154908060030154908060040160009054906101000a900460ff16905084565b6000818154811061093457600080fd5b906000526020600020016000915054906101000a900473ffffffffffffffffffffffffffffffffffffffff1681565b6000600160009054906101000a900473ffffffffffffffffffffffffffffffffffffffff16905060008173ffffffffffffffffffffffffffffffffffffffff166370a08231336040518263ffffffff1660e01b81526004016109c59190610ddd565b602060405180830381865afa1580156109e2573d6000803e3d6000fd5b505050506040513d601f19601f82011682018060405250810190610a069190611302565b11610a46576040517f08c379a0000000000000000000000000000000000000000000000000000000008152600401610a3d9061137b565b60405180910390fd5b60006003600181600181540180825580915050039060005260206000209060060201905085816000019081610a7b91906117ce565b5084816001019080519060200190610a94929190610b01565b5083816002018190555082816003018190555060008160040160006101000a81548160ff02191690831515021790555060005b8551811015610af8576000826005016000838152602001908152602001600020819055508080600101915050610ac7565b50505050505050565b828054828255906000526020600020908101928215610b49579160200282015b82811115610b48578251829081610b3891906117ce565b5091602001919060010190610b21565b5b509050610b569190610b5a565b5090565b5b80821115610b7a5760008181610b719190610b7e565b50600101610b5b565b5090565b508054610b8a906115f1565b6000825580601f10610b9c5750610bbb565b601f016020900490600052602060002090810190610bba9190610bbe565b5b50565b5b80821115610bd7576000816000905550600101610bbf565b5090565b6000604051905090565b600080fd5b600080fd5b6000819050919050565b610c0281610bef565b8114610c0d57600080fd5b50565b600081359050610c1f81610bf9565b92915050565b600060208284031215610c3b57610c3a610be5565b5b6000610c4984828501610c10565b91505092915050565b600081519050919050565b600082825260208201905092915050565b6000819050602082019050919050565b610c8781610bef565b82525050565b6000610c998383610c7e565b60208301905092915050565b6000602082019050919050565b6000610cbd82610c52565b610cc78185610c5d565b9350610cd283610c6e565b8060005b83811015610d03578151610cea8882610c8d565b9750610cf583610ca5565b925050600181019050610cd6565b5085935050505092915050565b60006020820190508181036000830152610d2a8184610cb2565b905092915050565b60008060408385031215610d4957610d48610be5565b5b6000610d5785828601610c10565b9250506020610d6885828601610c10565b9150509250929050565b610d7b81610bef565b82525050565b6000602082019050610d966000830184610d72565b92915050565b600073ffffffffffffffffffffffffffffffffffffffff82169050919050565b6000610dc782610d9c565b9050919050565b610dd781610dbc565b82525050565b6000602082019050610df26000830184610dce565b92915050565b600081519050919050565b600082825260208201905092915050565b60005b83811015610e32578082015181840152602081019050610e17565b60008484015250505050565b6000601f19601f8301169050919050565b6000610e5a82610df8565b610e648185610e03565b9350610e74818560208601610e14565b610e7d81610e3e565b840191505092915050565b60006020820190508181036000830152610ea28184610e4f565b905092915050565b610eb381610dbc565b8114610ebe57600080fd5b50565b600081359050610ed081610eaa565b92915050565b60008060408385031215610eed57610eec610be5565b5b6000610efb85828601610c10565b9250506020610f0c85828601610ec1565b9150509250929050565b60008115159050919050565b610f2b81610f16565b82525050565b6000602082019050610f466000830184610f22565b92915050565b60006080820190508181036000830152610f668187610e4f565b9050610f756020830186610d72565b610f826040830185610d72565b610f8f6060830184610f22565b95945050505050565b600080fd5b600080fd5b7f4e487b7100000000000000000000000000000000000000000000000000000000600052604160045260246000fd5b610fda82610e3e565b810181811067ffffffffffffffff82111715610ff957610ff8610fa2565b5b80604052505050565b600061100c610bdb565b90506110188282610fd1565b919050565b600067ffffffffffffffff82111561103857611037610fa2565b5b61104182610e3e565b9050602081019050919050565b82818337600083830152505050565b600061107061106b8461101d565b611002565b90508281526020810184848401111561108c5761108b610f9d565b5b61109784828561104e565b509392505050565b600082601f8301126110b4576110b3610f98565b5b81356110c484826020860161105d565b91505092915050565b600067ffffffffffffffff8211156110e8576110e7610fa2565b5b602082029050602081019050919050565b600080fd5b600061111161110c846110cd565b611002565b90508083825260208201905060208402830185811115611134576111336110f9565b5b835b8181101561117b57803567ffffffffffffffff81111561115957611158610f98565b5b808601611166898261109f565b85526020850194505050602081019050611136565b5050509392505050565b600082601f83011261119a57611199610f98565b5b81356111aa8482602086016110fe565b91505092915050565b600080600080608085870312156111cd576111cc610be5565b5b600085013567ffffffffffffffff8111156111eb576111ea610bea565b5b6111f78782880161109f565b945050602085013567ffffffffffffffff81111561121857611217610bea565b5b61122487828801611185565b935050604061123587828801610c10565b925050606061124687828801610c10565b91505092959194509250565b7f496e76616c69642070726f706f73616c20696e64657800000000000000000000600082015250565b6000611288601683610e03565b915061129382611252565b602082019050919050565b600060208201905081810360008301526112b78161127b565b9050919050565b7f4e487b7100000000000000000000000000000000000000000000000000000000600052603260045260246000fd5b6000815190506112fc81610bf9565b92915050565b60006020828403121561131857611317610be5565b5b6000611326848285016112ed565b91505092915050565b7f4e6f7420656e6f75676820746f6b656e2062616c616e63650000000000000000600082015250565b6000611365601883610e03565b91506113708261132f565b602082019050919050565b6000602082019050818103600083015261139481611358565b9050919050565b7f566f74696e6720686173206e6f74207374617274656420796574000000000000600082015250565b60006113d1601a83610e03565b91506113dc8261139b565b602082019050919050565b60006020820190508181036000830152611400816113c4565b9050919050565b7f566f74696e672068617320656e64656400000000000000000000000000000000600082015250565b600061143d601083610e03565b915061144882611407565b602082019050919050565b6000602082019050818103600083015261146c81611430565b9050919050565b7f496e76616c6964206f7074696f6e20696e646578000000000000000000000000600082015250565b60006114a9601483610e03565b91506114b482611473565b602082019050919050565b600060208201905081810360008301526114d88161149c565b9050919050565b7f416c726561647920766f74656400000000000000000000000000000000000000600082015250565b6000611515600d83610e03565b9150611520826114df565b602082019050919050565b6000602082019050818103600083015261154481611508565b9050919050565b7f4e487b7100000000000000000000000000000000000000000000000000000000600052601160045260246000fd5b600061158582610bef565b91507fffffffffffffffffffffffffffffffffffffffffffffffffffffffffffffffff82036115b7576115b661154b565b5b600182019050919050565b7f4e487b7100000000000000000000000000000000000000000000000000000000600052602260045260246000fd5b6000600282049050600182168061160957607f821691505b60208210810361161c5761161b6115c2565b5b50919050565b60008190508160005260206000209050919050565b60006020601f8301049050919050565b600082821b905092915050565b6000600883026116847fffffffffffffffffffffffffffffffffffffffffffffffffffffffffffffffff82611647565b61168e8683611647565b95508019841693508086168417925050509392505050565b6000819050919050565b60006116cb6116c66116c184610bef565b6116a6565b610bef565b9050919050565b6000819050919050565b6116e5836116b0565b6116f96116f1826116d2565b848454611654565b825550505050565b600090565b61170e611701565b6117198184846116dc565b505050565b5b8181101561173d57611732600082611706565b60018101905061171f565b5050565b601f8211156117825761175381611622565b61175c84611637565b8101602085101561176b578190505b61177f61177785611637565b83018261171e565b50505b505050565b600082821c905092915050565b60006117a560001984600802611787565b1980831691505092915050565b60006117be8383611794565b9150826002028217905092915050565b6117d782610df8565b67ffffffffffffffff8111156117f0576117ef610fa2565b5b6117fa82546115f1565b611805828285611741565b600060209050601f8311600181146118385760008415611826578287015190505b61183085826117b2565b865550611898565b601f19841661184686611622565b60005b8281101561186e57848901518255600182019150602085019450602081019050611849565b8683101561188b5784890151611887601f891682611794565b8355505b6001600288020188555050505b50505050505056fea2646970667358221220afcd7119f8b46f63bd22375a72aa2777f52fd13596cac558a8805d07704f237864736f6c63430008180033",
  "linkReferences": {},
  "deployedLinkReferences": {}
}